:020000040800F2
:10000000D02C002069140008BD030008BF030008BD
:10001000C1030008C3030008C50300080000000076
:10002000000000000000000000000000C7030008FE
:10003000C90300080000000073860008490F00088B
:100040008314000883140008831400088314000834
:100050008314000883140008E313000883140008C5
:100060008314000883140008831400088314000814
:100070008314000883140008831400088314000804
:1000800083140008831400088314000883140008F4
:1000900083140008831400088314000883140008E4
:1000A00083140008831400088314000883140008D4
:1000B0003103000883140008831400088314000827
:1000C00083140008831400088314000883140008B4
:1000D00083140008831400084511000883140008E5
:1000E0008314000883140008831400088314000894
:1000F0008314000883140008831400088314000884
:100100008314000883140008831400088314000873
:100110008314000883140008831400088314000863
:100120008314000883140008831400088314000853
:1001300000F002F800F03FF80AA090E8000C8244BA
:100140008344AAF10107DA4501D100F034F8AFF297
:10015000090EBAE80F0013F0010F18BFFB1A43F0A5
:100160000103184784870000A4870000103A24BFC9
:1001700078C878C1FAD8520724BF30C830C144BF0C
:1001800004680C607047000000230024002500264E
:10019000103A28BF78C1FBD8520728BF30C148BFEA
:1001A0000B607047642908F04F81002070471FB52D
:1001B0001FBD10B510BD08F00FFA1146FFF7F7FF8D
:1001C00000F078F808F02DFA03B4FFF7F2FF03BC53
:1001D00001F054F800F073FEFCE708B56946674883
:1001E00007F010F9664C674E002520780128FCD1F5
:1001F00025706946614806F09CFE357000F0D4FF1A
:1002000000F027FC00F0B6FF69465C4807F0FAF8FA
:10021000EBE72DE9F0438BB002F043FC02F016FD52
:10022000594D2978491C297002F014FD0024032738
:10023000CDE9064709AE4FF00C09544A08960594DB
:1002400005208DE805024FF080082346AFF27502C5
:100250004E48CDE903844EA1C43806F092FA474ACD
:10026000CDE90647C4320420089605948DE80502BE
:100270000023AFF29F02CDE9038448A13F4806F076
:1002800080FA02F0E3FC2978491E11F0FF01297081
:1002900007D14549098821B102F0DCFC04F057F987
:1002A00001E002F0D7FC09A9002006F043FB0BB0E7
:1002B000BDE8F08330B58BB000F0A2FB09A803F0D5
:1002C000DCFC02F0C3FC304C2178491C217002F0A8
:1002D000C1FC002006AB09AA0321059083E80700B2
:1002E00080220C23CDE90232304D04900346AFF258
:1002F000DD02CDE900152EA1A5F1C40006F041FAFA
:1003000002F0A4FC2178491E11F0FF01217007D1F1
:100310002549098821B102F09DFC04F018F901E09B
:1003200002F098FC09A803F003FE0BB0002030BDDA
:1003300010B503F024FD01218C07204602F097FA46
:10034000012813D10F48017881B10D48002243786C
:10035000994209D18178491CC9B28170042905D319
:1003600001210170827001E08270417001212046FC
:1003700002F089FABDE8104003F00CBD940600209D
:100380000000002034000020C80000209404002059
:100390005461736B31207461736B00007461736B13
:1003A00032207461736B00008C000020D0010020AB
:1003B0007374617274207461736B00007047FEE7A0
:1003C000FEE7FEE7FEE77047704700000CB500222D
:1003D0004C4800920192016841F4803101604FF471
:1003E000A063016801F4003101910099491C00915A
:1003F000019911B900999942F3D10168890333D564
:100400000121019140490A6842F010020A600A681D
:1004100022F003020A600A6842F002020A604168A0
:10042000416041684160416841F4806141604168D8
:1004300021F47C114160416841F4E8114160016898
:1004400041F08071016001688901FCD5416821F0AB
:1004500003014160416841F0020141604168C1F31C
:1004600081010229FAD10CBD01920CBD254810B5BD
:10047000016841F0010101604168244A1140416076
:100480000168234A11400160016821F48021016064
:10049000416821F4FE0141604FF41F018160FFF7C4
:1004A00095FF1C494FF00060086010BD154A10B55B
:1004B0005068194B10F00C01184803D0042901D0E2
:1004C000082901D0036012E05168536801F47011EB
:1004D0004FF0020413F4803F04EB914102D05368C3
:1004E0009B0301D50E4B00E00B4B59430160516853
:1004F0000A4AC1F30311121D515C0268CA4002602E
:1005000010BD000000100240002002400000FFF873
:10051000FFFFF6FE08ED00E000127A000400002064
:1005200000093D0010B500241E21012000F070FBE1
:100530001E21002000F08AFB322000F058FD1E2111
:10054000002000F065FB1E21012000F07FFB641CF1
:10055000E4B2052CE8D310BD10B500241E212046BE
:1005600000F074FB012000F042FD1E21002000F08D
:100570004FFB012000F03BFD1421012000F02FFB78
:10058000012000F034FD1421012000F00FFB0120B8
:1005900000F02DFD1E21012000F03AFB012000F0AB
:1005A00026FD1E21012000F051FB1E21012000F03C
:1005B0002FFB012000F01BFD1E21012000F046FB57
:1005C000012000F014FD1E21002000F0EFFA0120B0
:1005D00000F00DFD1E21002000F001FB012000F0C5
:1005E00006FD1E21002000F031FB012000F0FFFC81
:1005F0001E21002000F00CFB012000F0F8FC1E2161
:10060000002000F023FB012000F0F1FC1E2100205F
:1006100000F0FEFA012000F0EAFC1E21012000F0AB
:10062000DEFA012000F0E3FC1E21012000F0BEFAFA
:10063000012000F0DCFC1E21012000F0E9FA01207D
:1006400000F0D5FC1E21012000F000FB012000F08D
:10065000CEFC641C052CA8DB1421002000F0BFFA9E
:10066000012000F0C4FC1421002000F09FFABDE836
:100670001040012000F0BBBC10B500241E21012059
:1006800000F0C6FA012000F0B2FC1E21012000F0AB
:10069000DDFA012000F0ABFC1421012000F086FA05
:1006A000012000F0A4FC1421012000F098FA0120A0
:1006B00000F09DFC1E21002000F0C8FA012000F08F
:1006C00096FC1E21002000F0A3FA1E21002000F05D
:1006D000BDFA012000F08BFC1E21002000F098FAEA
:1006E000012000F084FC1E21002000F078FA012097
:1006F00000F07DFC1E21002000F058FA012000F0DF
:1007000076FC1E21012000F083FA012000F06FFC2E
:100710001E21012000F09AFA012000F068FC1E2141
:10072000012000F075FA012000F061FC1E2101207B
:1007300000F08CFA012000F05AFC1E21012000F08C
:1007400035FA012000F053FC1E21012000F047FA89
:10075000012000F04CFC1E21002000F077FA01205F
:1007600000F045FC1E21002000F052FA012000F0AC
:100770003EFC641C052CA8DB1421002000F016FAB6
:10078000012000F034FC1421002000F028FABDE81C
:100790001040012000F02BBC10B50024142120468D
:1007A00000F054FA012000F022FC1421002000F097
:1007B0002FFA012000F01BFC1421002000F0F6F9B4
:1007C000012000F014FC2821012000F0EFF90120A5
:1007D00000F00DFC2821002000F0E8F9012000F0D5
:1007E00006FC641CE4B20A2CEDD31421012000F0B5
:1007F000DDF9012000F0FBFB1421012000F026FAB6
:10080000012000F0F4FB1421012000F001FA4FF464
:10081000FA6000F0ECFB1421012000F0F9F901204E
:1008200000F0E5FB1421012000F010FA012000F097
:10083000DEFB1421002000F0D2F9012000F0D7FBEC
:1008400000242821012000F0CAF9012000F0CFFB8C
:100850002821002000F0C3F9012000F0C8FB641C2F
:10086000E4B20A2CEDD31421012000F0B8F90120E4
:1008700000F0BDFB1421002000F0E8F9012000F099
:10088000B6FB1421002000F0C3F9BDE810400120A0
:1008900000F0ADBB10B500241E21012000F0B8F916
:1008A000012000F0A4FB1E21012000F0CFF901205F
:1008B00000F09DFB1421012000F091F9012000F0CF
:1008C00096FB1E21002000F0C1F9012000F08FFBF3
:1008D0001E21002000F09CF91E21002000F0B6F936
:1008E000012000F084FB1E21002000F091F901207E
:1008F00000F07DFB1421002000F071F9012000F0D0
:1009000076FB1E21012000F083F9012000F06FFB2F
:100910001E21012000F09AF9012000F068FB641C00
:10092000E4B2032CB8D310BD10B500241E21002062
:1009300000F08CF9012000F05AFB1E21002000F08D
:1009400067F9012000F053FB1421002000F02EF97C
:10095000012000F04CFB1E21012000F059F901207C
:1009600000F045FB1E21012000F070F91E2101203E
:1009700000F04EF9012000F03AFB1E21012000F0AA
:1009800065F9012000F033FB1421012000F00EF97D
:10099000012000F02CFB1E21002000F057F901205F
:1009A00000F025FB1E21002000F032F9012000F0AC
:1009B0001EFB641CE4B2032CB8D310BD10B501219A
:1009C000022000F0ADF94FF4FA7000F010FB0024A3
:1009D0000021042000F0A4F9642000F008FB0121AC
:1009E000042000F09DF9642000F001FB641CE4B2D7
:1009F0000A2CEDD30021BDE81040022000F090B990
:100A000010B5FFF733FD00F0ADFA4FF4A06000F031
:100A10004BFD4FF4E134204600F040FC204600F04E
:100A20000FFB19498C201A4A087018498220087057
:100A3000962111701749087041F61F41312000F0CE
:100A40007DFC00F02BF800F029F9BDE8104000F023
:100A5000EBB911480178082913D2DFE801F012043C
:100A600006080A0C0E10FFF777BDFFF705BEFFF76B
:100A70005BBFFFF70FBFFFF78FBEFFF753BDFFF759
:100A80009DBF0021017070471B0000201C0000204A
:100A90001D0000201E00002018000020F0B589B0C5
:100AA0000121022001F034F901210C2001F027F985
:100AB000C020ADF810001C258DF8135003248DF8CC
:100AC000124004A96E4800F09EFDADF810408DF86C
:100AD00013508DF8124004A96A4800F094FD40F2CA
:100AE000CF70ADF8180040F2CF20ADF8140000260A
:100AF000654FADF81A60ADF8166005A9384601F0EB
:100B0000E5F96020614DADF800000124ADF8024028
:100B1000A878ADF80600ADF808606946384601F0DF
:100B20000EFAADF80240E878ADF80600694638469E
:100B300001F03AFA0821384601F05EFDADF80240B6
:100B40002879ADF806006946384601F069FA0821AF
:100B5000384601F05BFDADF802406879ADF806005B
:100B60006946384601F096FA0821384601F054FDEE
:100B70000121384601F05CFC0121384601F004FDFA
:100B80000121384601F04AFC09B0F0BD81B23E486F
:100B900001F045BE81B23C4801F043BE81B23A4803
:100BA00001F041BE81B2384801F03FBE70B5064643
:100BB000364C0D4600202070C0B2A8420ED2A0785C
:100BC00056B1401EA070C0B2FFF7E0FF072000F052
:100BD0000EFA2078401CEEE7401CF3E770BD70B5BC
:100BE00006462A4C0D4600202070C0B2A8420ED204
:100BF000E07856B1401EE070C0B2FFF7CBFF07208F
:100C000000F0F5F92078401CEEE7401CF3E770BDDA
:100C100070B506461D4C0D4600202070C0B2A8429B
:100C20000ED2207956B1401C2071C0B2FFF7B6FF3A
:100C3000607800F0DCF92078401CEEE7401EF3E716
:100C40002179BDE8704012A007F0BEBB70B5064622
:100C50000E4C0D4600202070C0B2A8420ED2607922
:100C600056B1401C6071C0B2FFF79CFF607800F085
:100C7000BEF92078401CEEE7401EF3E770BD00008F
:100C800000080140000C0140000400401900002051
:100C90006265617574793A256400000008B5012128
:100CA000082001F02CF810208DF8030003208DF8A7
:100CB000020047F2E010ADF800006946294800F054
:100CC000A2FC08BD70B50446264DC0074FF02001B8
:100CD000284602D000F001FD01E000F000FDA00771
:100CE0004FF04001284602D500F0F7FC01E000F08B
:100CF000F6FC60074FF08001284602D500F0EDFCBD
:100D000001E000F0ECFC20074FF48071284603D589
:100D1000BDE8704000F0E1BCBDE8704000F0DFBC11
:100D20002DE9F047104F89468246002607F1080852
:100D300012E000250024B9F1010F11D018F80400C9
:100D4000FFF7C0FF022000F052F9641C082CF2DB10
:100D50006D1C082DEEDB761C5645EADBBDE8F087FE
:100D6000385DEDE7000C01401F0000202DE9F04147
:100D70006C4E05464FF48041304600F0B0FC002434
:100D80004FF4805877143946304600F0A8FCE80745
:100D90004146304602D000F0A0FC01E000F09FFC8C
:100DA0003946304600F099FC641C6D08E4B2082C0A
:100DB000E9D33946304600F092FC41463046BDE862
:100DC000F04100F08CBC70B5564D06464FF480449F
:100DD0002146284600F083FC3046FFF7C7FF214636
:100DE000284600F07AFCBDE87040022000F0FFB811
:100DF00070B54020FFF7E7FF4A4E4FF48045294683
:100E0000304600F06CFCC020FFF7B0FF002400204B
:100E1000FFF7ACFF641CE4B2102CF8D3294630462F
:100E2000BDE8704000F059BC10B53E4C4FF4005185
:100E3000204600F052FC4FF48041204600F04DFC6B
:100E4000A114204600F049FC8920FFF7BCFFFFF702
:100E5000CFFFBDE81040642000F0C9B82DE9F0478D
:100E60004FF0C80A4420FFF7AEFF00250126DFF847
:100E7000B4804FF0C009B7033946404600F02FFC5C
:100E800009EB4500C0B2FFF771FF002406FA04F039
:100E9000C0B2FFF76BFF504600F0A9F8641CE4B243
:100EA000092CF3D33946404600F017FC142000F01B
:100EB0009EF86D1CEDB2082DDED3BDE8F08770B54D
:100EC0004020FFF780FF174E4FF4804529463046FB
:100ED00000F005FCC020FFF749FF00240020FFF7C9
:100EE00045FF641CE4B2102CF8D32946304600F0CC
:100EF000F4FB642000F07BF82946304600F0EFFB5D
:100F0000C020FFF733FF0024FF20FFF72FFF641CF2
:100F1000E4B2102CF8D329463046BDE8704000F00A
:100F2000DCBB0000000C014008B5684602F099FFE8
:100F300008BD08B5684602F0CDFF08BD08B56A4691
:100F4000082106F04FFC08BD364810B5007801288E
:100F500007D102F014FF06F0A2FDBDE8104002F038
:100F600019BF10BD10B56FF0040000F0E2FA2E4872
:100F70002E492F4B0068304CB0FBF1F2B0FBF1F082
:100F80001A702C4A1168B4FBF1F1414310684FF418
:100F90007A72B2FBF0F058804FF0E020026942F024
:100FA000020202614161016941F00101016110BD6C
:100FB000F8B54FF0E02700247E691D49097800FB51
:100FC00001F5684602F04DFFB969B8698842FCD066
:100FD00002D2A1EB000102E0A6EB000211440C4496
:100FE0000146AC42F1D3684602F074FFF8BD70B51B
:100FF00004460C48007878B11048007860B90C4D70
:101000006888844203D3B4FBF0F0FFF797FF688849
:10101000B4FBF0F100FB11444FF47A706043BDE87B
:101020007040C5E7810000200400002000127A0013
:1010300030000020B488000840420F0080000020EB
:10104000F0B5074687B00121042000F058FE0121C9
:10105000480400F05DFE0424ADF8104003258DF82F
:10106000125018206F4E8DF8130004A9304600F07E
:10107000CAFA0820ADF810008DF8134004A93046D4
:1010800000F0C1FA26208DF814008DF815500220CA
:101090008DF8160001208DF8170005A800F009FA58
:1010A0000020ADF80400ADF80600ADF80800ADF87A
:1010B0000C000C205C4CADF80A00009769462046F5
:1010C00000F0ACFB012240F22551204600F023FC49
:1010D0000121204600F015FC07B0F0BD52490A88F6
:1010E0001206FCD55049091D0880704710B54E4ABC
:1010F000141D06E013881B06FCD510F8013B238065
:10110000491E0029F6D110BD70B50446464D09E0D0
:101110002846641C00F04BFC8021284600F0A8FC07
:101120000028F9D021780029F2D170BD404A3F4B08
:1011300011785854491CC8B210700F2801D30020F0
:101140001070704710B502F01AFE374C40F225516E
:10115000204600F097FC48B1204600F02CFCC0B2BD
:10116000FFF7E4FF2021204600F089FCBDE8104095
:1011700002F010BE00202D4A01461154401CC0B29E
:101180000A28FAD3704730B5002306E05B1C93426F
:1011900001D1002030BD401C491C04780D78AC42C0
:1011A000F4D04FF0FF3030BD10B5062221A11F480A
:1011B000FFF7E9FF214C002825D0082220A11B4879
:1011C000FFF7E1FF08B3052220A11848FFF7DBFF76
:1011D000F0B1082220A11548FFF7D5FFD0B10522B4
:1011E00020A11248FFF7CFFFB0B105221FA10F4881
:1011F000FFF7C9FF90B104221EA10C48FFF7C3FFFF
:1012000070B1002002E0012000E00220207010BD3B
:101210000320FBE70420F9E70520F7E70620F5E7C0
:101220000720F3E70008014000440040580900206F
:1012300034000020466F727761726400180000204D
:101240004261636B77617264000000005475726ED6
:1012500052696768740000005475726E4C6566745C
:101260000000000044616E63650000005368616B1C
:10127000650000004865616400000000704770B5BB
:101280002C4D0446C1B2284600F091FB402128466F
:1012900000F0EEFB0128F9D1204670BD70B505467F
:1012A00086B0012144F2040000F029FD4FF40070E3
:1012B000ADF8100003248DF8124018201E4E8DF852
:1012C000130004A9304600F09EF93015ADF8100067
:1012D00004208DF8130004A9304600F094F925206D
:1012E0008DF814008DF815408DF8164001208DF80A
:1012F000170005A800F0DDF80020ADF80400ADF8F7
:101300000600ADF80800ADF80C000C20094CADF853
:101310000A0000956946204600F080FA002240F25B
:101320002551204600F0F7FA0121204600F0E9FAA5
:1013300006B070BD00380140000801407FB50D4681
:1013400004460121084600F0E3FCADF8044000200B
:10135000ADF80050ADF80200ADF806004FF0804443
:101360006946204600F0B2FD01221146204601F0F8
:101370006AF80121204601F051F81C208DF80C007C
:1013800001208DF80D0003218DF80E108DF80F004F
:1013900003A800F08EF87FBD10B50121080700F00A
:1013A000B7FC012001F08BFABDE8104001F0A0BAB3
:1013B00010B500214FF4FE7000F0B3FCBDE8104002
:1013C000EAE770B5264D0024D5F80001002807D0C3
:1013D000641CE4B21E20FFF70AFE642CF4D3012043
:1013E00070BD10B5012001F013FBFFF7EAFF0028E4
:1013F00002D0BDE81040DBE710BD1FB5012105207C
:1014000000F07DFC0124ADF80C4028208DF80F0081
:1014100003A9144800F0F7F80021084600F0A7F9E6
:1014200000208DF8040008208DF8050000948DF848
:101430000640684601F08EFA06208DF8080002206A
:101440008DF809008DF80A008DF80B4002A800F015
:1014500030F8FFF7B6FF002801D1FFF79DFF1FBD51
:101460000000214200080140094880470948004720
:10147000FEE7FEE7FEE7FEE7FEE7FEE7FEE7FEE744
:10148000FEE7FEE704480549054A064B70470000A1
:101490006D04000831010008D0260020D02C002067
:1014A000D0280020D0280020284908432849086077
:1014B000704730B50F23C27801780125F2B1244A74
:1014C000126801F1E02102F4E062C2F5E062120A62
:1014D000C2F10404D3404278A24084781C401443F3
:1014E000220181F80024007800F01F018D4040099E
:1014F000800000F1E020C0F8005130BD01F01F0075
:1015000085404809800000F1E020C0F8805130BDDE
:10151000104A114001430E48001F016070470C4AF9
:10152000121D0029116801D0014300E081431160C0
:1015300070474FF0E0210428086903D020F0040030
:101540000861704740F00400FAE700000000FA0567
:101550000CED00E080FFFF1F8F4910B5884206D1D7
:101560000121042000F0DDFB002104203BE08B4939
:10157000884206D10121082000F0D3FB0021082079
:1015800031E08749884206D10121102000F0C9FBD3
:101590000021102027E08349884206D10121202024
:1015A00000F0BFFB002120201DE07F49884206D1CA
:1015B0000121402000F0B5FB0021402013E07B49D1
:1015C000884206D10121802000F0ABFB0021802061
:1015D00009E0774988420AD184150121204600F0AC
:1015E000A0FB00212046BDE8104000F09ABB10BDD2
:1015F00010B50121084600F094FB0021BDE8104021
:10160000012000F08EBBF0B5CC78002204F00F036F
:10161000E40601D58C7823430C784FF00F0C14F0BE
:10162000FF0F4FF0010E1BD005680E880EFA02F472
:101630002640A64210D196000CFA06F725EA0707C5
:1016400003FA06F5CE783D43282E02D0482E02D06C
:1016500002E0446100E00461521C082AE5D3056001
:101660000A88FF2A1CD94468002202F108060EFAF3
:1016700006F50E882E40AE420ED196000CFA06F703
:10168000BC4303FA06F7CE783C43282E00D14561CF
:10169000CE78482E00D10561521C082AE5D344605B
:1016A000F0BD4FF6FF710180022181700421C170ED
:1016B00070470246002092680A4200D0012070471D
:1016C000806880B2704702460020D2680A4200D08B
:1016D00001207047C06880B2704701617047416166
:1016E00070470AB10161704741617047C16070473E
:1016F00041F48032826181618261816980697047D1
:101700002C4B10B51A684FF68074224042EA001044
:101710000843186010BD2849C8617047F0B5254CD2
:10172000002801DAE36900E06368450D2E0185B207
:10173000C0F30157B540C0F30342032F05D0C602E2
:101740000AD503269640B34307E023F0706263682E
:1017500023F07063636002E0AB4343F0706201B159
:101760002A43002801DAE261F0BD6260F0BD10B5E5
:101770008A0721F003040F49120F21440F238C68BC
:1017800093409C438C608B68904003438B6010BDFA
:101790000949C1F8DC00704700080140000C014015
:1017A000001001400014014000180140001C0140DD
:1017B000002001400000014000002042C44910B553
:1017C00088420AD101218C03204600F0AAFA204663
:1017D000BDE81040002100F0A4BABE49884202D101
:1017E00001214C0410E0BC49884202D101218C0443
:1017F0000AE0BA49884202D10121CC0404E0B84988
:1018000088420AD101210C05204600F093FA2046B7
:10181000BDE81040002100F08DBA10BD30B504467F
:10182000008A85B00D464CF6FF710840E9880143F7
:101830002182A0894EF6F3110840A9882A89114314
:101840006A8902431143A181A08A4FF6FF410840F3
:10185000A9890143A182684600F006FA9C488442A7
:1018600001D1039800E00298A189090400EBC001AE
:1018700001EB0010296801D5490000E08900B0FBA8
:10188000F1F06422B0FBF2F109010B096FF01805C9
:101890006B4300EB8300A3891D044FF0320306D590
:1018A00003EBC000B0FBF2F000F0070005E003EB33
:1018B0000010B0FBF2F000F00F000843208105B0EB
:1018C00030BD4FF41651016000218180C18001813B
:1018D0000C2242818181704710B5028A4FF2FF03CA
:1018E0001A400B884C8823438C88C9880C432343B7
:1018F0001343038210BD0021018041808180C1809B
:1019000070470029818902D041F4005101E021F49F
:1019100000518181704710B5C1F3421301F01F04DB
:101920000121A140012B07D0022B07D01430002A3F
:10193000026805D00A4304E00C30F8E71030F6E7FF
:101940008A43026010BD002A828A01D00A4300E067
:101950008A4382827047028A22F00F020282028A40
:101960000A4302827047828922F40062828182895E
:101970000A43828170470029818902D041F0020127
:1019800001E021F0020181817047028A22F02002E9
:101990000282028A0A43028270470029018A02D029
:1019A00041F4804101E021F4804101827047C1F39C
:1019B0000801818070478088C0F3080070478189E2
:1019C00041F0010181817047028BD2B20283028B08
:1019D00042EA012101837047028B02F47F420283B5
:1019E000028B0A43028370470029818A02D041F0AA
:1019F000200101E021F02001818270470029818AC5
:101A000002D041F0100101E021F010018182704705
:101A10000029818A02D041F0080101E021F008018B
:101A2000818270470029818902D041F4004101E0A0
:101A3000C1F30E01818170470029818A02D041F4EF
:101A4000006101E021F4006181827047828A22F006
:101A500004028282828A0A43828270470029818A34
:101A600002D041F0020101E021F0020181827047C1
:101A70000246002012880A4200D001207047C94364
:101A80000180704770B501F01F0501260024C1F3E5
:101A9000421306FA05F2012B0FD0022B0FD0838AD6
:101AA0004FEA11210088134206FA01F600EA060007
:101AB00001D000B10124204670BD8389F0E7038A7C
:101AC000EEE70A0A01219140C943018070470000F6
:101AD000003801400044004000480040004C0040F5
:101AE00000500040A548016841F0010101604168D3
:101AF000A34A114041600168A24A11400160016897
:101B000021F480210160416821F4FE0141604FF41D
:101B10001F018160704799490A6822F480320A6087
:101B20000A6822F480220A60B0F5803F07D0B0F541
:101B3000802F03D1086840F4A0200860704708682F
:101B400040F48030F9E70346002059098B4A012907
:101B50000AD002290AD0516A03F01F0201239340E0
:101B60000B4200D0012070471168F5E7116AF3E7D6
:101B700018B500204FF4A06400903120FFF7E3FF78
:101B80000099491C0091A14201D00028F5D03120D4
:101B9000FFF7D9FF002800D0012018BD774A11684F
:101BA00021F0F80141EAC0001060704776490860F2
:101BB0007047724B5A68084322F47C1210435860F5
:101BC00070477149086670476C4A516821F00301FB
:101BD0000143516070476948406800F00C0070474D
:101BE000664A516821F0F001014351607047634A31
:101BF000516821F4E0610143516070475F4A5168C8
:101C000021F4605141EAC000506070475B4A0029EE
:101C1000517A01D0014300E08143517270475A4923
:101C2000C1F8D8007047554A516821F4404101433A
:101C3000516070475149002281F8202081F820200E
:101C4000012802D0042802D1052081F82000704725
:101C50004E490860704749490A6A02430A62704760
:101C60004A4944390860704730B5444A5168484B86
:101C700011F00C0103D0042901D0082901D0036020
:101C800012E05168536801F470114FF0020413F42C
:101C9000803F04EB914102D053689B0301D53D4B3B
:101CA00000E03B4B5943016051680F2303EA1111D7
:101CB000394B5C5C0168E14041605468072505EAE6
:101CC00014241C5D21FA04F48460546805EAD424C9
:101CD0001B5DD940C1605268032303EA92322E4B48
:101CE0001B1F9A5CB1FBF2F1016130BD234A002950
:101CF000516901D0014300E08143516170471F4A9F
:101D00000029916901D0014300E08143916170474E
:101D10001A4A0029D16901D0014300E08143D16111
:101D20007047164A0029D16801D0014300E0814381
:101D3000D1607047114A0029116901D0014300E0C8
:101D400081431161704711494039086070470E495D
:101D5000C86470470949C87170470848416A41F032
:101D6000807141627047054A0146002092680A422C
:101D700000D001207047014988727047001002406E
:101D80000000FFF8FFFFF6FE0000424280044242DE
:101D900000127A0000093D0040000020F94910B50A
:101DA000884202D10121C41486E0B0F1804F09D0ED
:101DB000F54988420DD101210220FFF7BBFF002128
:101DC000022064E001210846FFF7B4FF0021012052
:101DD0005DE0EE49884206D101210420FFF7AAFF09
:101DE0000021042053E0EA49884206D1012108205D
:101DF000FFF7A0FF0021082049E0E649884206D10C
:101E000001211020FFF796FF002110203FE0E2495A
:101E1000884206D101212020FFF78CFF00212020DD
:101E200035E0DE49884202D10121441444E0DC4916
:101E3000884202D10121CC043EE0DA49884202D135
:101E400001210C0538E0D849884202D101214C0516
:101E500032E0D649884206D101214020FFF76AFFCF
:101E60000021402013E0D249884206D10121802080
:101E7000FFF760FF0021802009E0CE4988420AD1A7
:101E8000841501212046FFF755FF00212046BDE8BB
:101E90001040FFF74FBFC849884202D101210C040E
:101EA0000AE0C649884202D101214C0404E0C44939
:101EB00088420AD101218C042046FFF732FF2046D8
:101EC000BDE810400021FFF72CBF10BD30B50288DF
:101ED000AC4CB24DA0420DD0A8420BD0B0F1804F17
:101EE00008D0A94B984205D0A84B984202D0A84BE5
:101EF000984203D122F070034A881A43A54B9842B6
:101F000006D0A54B984203D022F44073CA881A43E6
:101F100002808A8882850A880285A0420AD0A84267
:101F200008D0A54A904205D0A44A904202D0A44AC3
:101F3000904201D1097A01860121818230BD30B5FC
:101F4000028C22F001020284028C8388048B22F02E
:101F5000020224F073050C882C430D8915434A882E
:101F60002A43884DA8420BD08C4DA84208D0924DF0
:101F7000A84205D0914DA84202D0914DA8420DD162
:101F800022F008054A8923F440732A4322F004050D
:101F90008A882A438D891D43CB892B438380048300
:101FA000C9888186028430BD70B5028C22F010028F
:101FB0000284028C8388048B0D8824F4E6464FF655
:101FC000FF7404EA052535430E8922F0200204EA55
:101FD000061616434A8804EA02123243694EB0429A
:101FE00002D06E4EB04215D122F080064A8923F409
:101FF000406304EA0212324322F040068A8804EA6F
:10200000021232438E8904EA86061E43CB8904EA13
:102010008303334383800583C9880187028470BDAD
:1020200070B5028C22F480720284028C8388848BC7
:102030000D8824F0730425430E894FF6FF7422F4B3
:10204000007204EA062616434A8804EA0222324352
:102050004C4EB04202D0514EB04215D122F400662F
:102060004A8923F4405304EA0222324322F4806670
:102070008A8804EA022232438E8904EA06161E4345
:10208000CB8904EA0313334383808583C98881871E
:10209000028470BD70B5028C22F480520284058CDB
:1020A0008288838B0C8823F4E6464FF6FF7303EA9D
:1020B0000424344325F400560D8903EA05353543DD
:1020C0004E8803EA06362E432E4DA84202D0334DE9
:1020D000A84205D122F480458A8903EA82122A4364
:1020E00082808483C988A0F84010068470BD828BEA
:1020F00022F440628283828B4FF6FF7303EA012150
:102100000A4382837047828B22F00C028283828B87
:102110000A4382837047028B22F440620283028B5F
:102120004FF6FF7303EA01210A4302837047F0B5BB
:10213000048C24F010040484078B048C4FF6FF7584
:1021400027F4734705EA03333B4305EA02221A43A7
:102150000C4B05EA011698420ED0104B98420BD05A
:10216000B0F1804F08D0084B984205D0074B9842F9
:1021700002D0074B984225D124F02001314341F091
:10218000100124E0002C0140000400400008004041
:10219000000C0040001000400014004000340140DA
:1021A000004C014000500140005401400018004024
:1021B000001C00400020004000400140004401405D
:1021C0000048014024F0A0030B4343F010010283B8
:1021D0000184F0BD028B22F00C020283028B0A43C1
:1021E0000283704770B5048C24F001040484058BCD
:1021F000048C4FF6FF7606EA0313134325F0F3052C
:10220000F84A2B4390420ED0F74A90420BD0B0F1DF
:10221000804F08D0F54A904205D0F54A904202D04E
:10222000F44A904202D124F0020201E024F00A02B2
:102230000A4342F001010383018470BD2DE9F84F88
:102240000D4604460888E74FDFF89CC3DFF89C83FF
:10225000DFF89C934988AA882B894FF0804A48B3BD
:1022600004282FD04FF6FF760828934632D0208CD2
:102270009E4620F480502084A38B208C06EA0132F5
:10228000009223F4734306EA0B221A4306EA0E3344
:102290001343BC420AD0644508D0544506D0444597
:1022A00004D04C4502D0D34A944242D120F400508D
:1022B000009940E02046FFF795FFE9882046BDE8F9
:1022C000F84F87E72046FFF732FFE9882046BDE850
:1022D000F84F20E7208C20F480702084B4F81CE0B4
:1022E000208C06EA031306EA01222EF0F30E43EADD
:1022F0000B0343EA0E030092BC420AD0644508D0A7
:10230000544506D0444504D04C4502D0B94A9442C5
:1023100003D120F40070009901E020F4206008430C
:1023200040F48070A3832084E9882046BDE8F84FFC
:10233000E9E620F40240084340F48050A38320845F
:10234000E9882046BDE8F84FD1E62DE9F0410C467A
:10235000002649880746012501B90226A288012ADC
:1023600000D10225208823890028384610D0FFF7A5
:10237000DEFEE1883846FFF7CEFE23892A46314645
:102380003846FFF72FFFE1883846BDE8F04121E7E6
:10239000FFF728FFE1883846FFF71CFF23892A460C
:1023A00031463846FFF7C3FEE1883846BDE8F041C4
:1023B000B1E610B50A884B88CC881A438B88234332
:1023C0001A430B891A434B8989891A430A43A0F897
:1023D000442010BD4FF6FF71818000210180C18033
:1023E0004180017270470021018041808180C1805D
:1023F000018141818181C18170470021018041803B
:1024000001228280C18001817047002101804180CA
:102410008180C180018141818181704700290188CB
:1024200002D041F0010101E021F00101018070477B
:10243000002930F8441F02D041F4004101E0C1F30B
:102440000E0101807047002A828901D00A4300E012
:102450008A4382817047818270471143A0F84810F7
:102460007047002A828901D00A4300E08A438281B2
:102470007047018921F0070101817047028922F02C
:1024800070020A430281704700B50346FFF7F6FF6A
:10249000188940F00700188100BD70B516460D463A
:1024A000602904464FF0010231460AD0FFF79AFE38
:1024B00029462046FFF7E2FF208940F007002081EF
:1024C00070BDFFF734FEF3E730B504894FF6FF75B2
:1024D00005EA03231343E4B20B432343038130BDD6
:1024E00010B50446FFF7F0FF208940F07700208107
:1024F00010BD10B50446FFF7E7FF208940F4804087
:10250000208110BD018582827047028822F070020E
:102510000A430280704770B50589048B068C25F04C
:1025200007050D434FF6FC410C4040F201110C43EE
:102530004FF6FF7101EA031126F0220611433143E1
:1025400005810483018470BD028B22F070020A436E
:1025500002837047028B4FF6FF7322F4E04203EAD6
:102560000121114301837047828B22F070020A43DC
:1025700082837047828B4FF6FF7322F4E04203EAB6
:1025800001211143818370470029018802D041F065
:10259000800101E021F080010180704700298188DD
:1025A00002D041F0040101E021F004018180704774
:1025B0000029818802D041F0080101E021F00801E2
:1025C000818070470029818802D041F0010101E03B
:1025D00021F0010181807047028B22F008020A433A
:1025E00002837047002C0140003401400004004089
:1025F00000080040000C0040028B4FF6FF7322F4ED
:10260000006203EA012111430183EAE7828B22F091
:1026100008020A438283E4E7828B4FF6FF7322F4B9
:10262000006203EA012111438183DAE7028B22F081
:1026300004020A430283D4E7028B4FF6FF7322F4AD
:10264000806203EA012111430183CAE7828B22F0F1
:1026500004020A438283C4E7828B4FF6FF7322F49D
:10266000806203EA012111438183BAE7028B22F0E1
:1026700080020A430283B4E7028B4FF6FF73C2F372
:102680000E0203EA012111430183AAE7828B22F0A3
:1026900080020A438283A4E7828B4FF6FF73C2F362
:1026A0000E0203EA0121114381839AE7028C22F092
:1026B00002020A43028494E7028C22F008020A43D1
:1026C00002848EE7028C4FF6FF7322F0200203EAA9
:1026D00001111143018484E7028C4FF6FF7322F04D
:1026E000800203EA0111114301847AE7028C4FF65C
:1026F000FF7322F4007203EA01211143018470E7A1
:10270000028C4FF6FF7322F4006203EA01211143A9
:10271000018466E7028C4FF6FF7322F4005203EA4D
:102720000131114301845CE710B50123048C8B4017
:102730009C430484038C8A401343038410BD10B56A
:102740000423048C8B409C430484038C8A401343F1
:10275000038410BD30B50124058C00F118038C40B2
:10276000A543058489B108290FD0091FC1F34E0084
:102770001844016821F4E041016001684FF6FF73DD
:1027800003EA02221143016030BD03EB51000168EE
:1027900021F0700101600168F4E70029018802D08E
:1027A00041F0020101E021F00201018019E7002956
:1027B000018802D041F0040101E021F00401018010
:1027C0000FE70029818802D041F0800101E021F06B
:1027D0008001818005E7028822F0080202800288D9
:1027E0000A430280FDE6828822F07002828082889D
:1027F0000A438280F5E6028922F0070202810289FB
:102800000A430281EDE6028922F0800202810289F8
:102810000A430281E5E68184E3E68185E1E681867B
:10282000DFE60187DDE68187DBE6A0F84010D8E629
:10283000028822F44072028002880A430280D0E6B5
:10284000808ECEE6008FCCE6808FCAE6B0F84000DE
:10285000C7E6808CC5E6008DC3E602460020128ADA
:102860000A4200D00120BCE6C9430182B9E6024613
:102870000020138A92890B4202EA010202D0002A48
:1028800000D00120ADE6C9430182AAE610B50121BE
:102890000C072046FFF74EFA2046BDE81040002105
:1028A000FFF748BA2149086270472049086170471C
:1028B0001F4A116821F0E0010143116070471B4974
:1028C000C1F8A00070471A4B1A6822F003020243B5
:1028D0001A601848026842F004020260012905D01B
:1028E00020BF016821F004010160704730BFF8E7A4
:1028F0000F48016841F004010160016841F00201E4
:1029000001600C48016841F00401016030BF70476C
:10291000074A0146002052680A4200D00120704751
:1029200003490A6842EA80000860704700000E42CE
:102930000070004010ED00E0374900200860091DDC
:102940000860091D0860091D0860334933481431C7
:102950000860704730B5304A8379016853B3136813
:102960008B431360111D0B680468A3430B6001794E
:1029700011440B68046823430B60274B0833196824
:102980000468A14319601C1D21680568A9432160E2
:102990004179102905D011440A68006802430A6091
:1029A00030BD19680268114319602168006801434D
:1029B000216030BD0079104402688A43026030BD56
:1029C0000021016001710C2242718171704712492E
:1029D00010310A6802430A60704701460E4A00201F
:1029E000143212680A4200D0012070470A4914319B
:1029F00008607047084A014600201268064B0A40EA
:102A000014331B680B4202D0002A00D0012070470B
:102A1000014914310860704700040140FFFF0F00B6
:102A200000B585B06846FFF71FF9019805B000BDF5
:102A300010B5FFF7F5FF11490A6842F080720A608D
:102A40000F4900224A600A6842F001020A60BDE8AC
:102A5000104000F075B80A484068704710B5044649
:102A6000FFF7DEFF0021074A0B4605F036FC024661
:102A70000B462046002105F030FC10BDFCED00E0C7
:102A8000001000E040420F0010B500F0DFF80446EF
:102A90001021694800F0D8F92046BDE8104000F048
:102AA000D9B8664910B500200860FFF7C1FFBDE83E
:102AB0001040E9E7FEE770B505460C000ED075B191
:102AC00000F0C4F8064610225B49284600F0C4FC1A
:102AD000304600F0BFF80020208070BDFEE70A20DD
:102AE000088070BD70B50C00054612D095B110215C
:102AF00000F0A4FC102810D200F0A8F8064610221E
:102B000029464D4800F0A8FC304600F0A3F800200C
:102B100005E0FEE70A20088070BD4FF47A7020803F
:102B200070BDFFF798BF7047020004D043480068AB
:102B300010B1002102E0FEE74FF4FA611180704706
:102B40003E490860704710B500F08BF8183810BD8A
:102B500010B500F086F8103810BD00F082B8F0B55E
:102B60000C0E0B0C0D0A0026354AD0F1FF378E41B2
:102B70001BD24FF6FF76D0F1FF378E410AD26FF0AD
:102B80007F45D0F1FF308D4101D2105DF0BDD05CAA
:102B90000830F0BDFF23D0F1FF308B4102D2505DF1
:102BA0001030F0BD505C1830F0BD4FF6FF740023BC
:102BB000241A8B4111D26FF07F440023241A8B41D9
:102BC00005D2000E40EA0120105C2030F0BD000C60
:102BD00040EA0140105C2830F0BD0023D0F1FF0432
:102BE0008B4105D2000A40EA0160105C3030F0BD34
:102BF000105C3830F0BD08B100F036B808207047DE
:102C000008B100F031B81020704708B100F02CB8BE
:102C10002020704700B550EA01020BD0C243521C7D
:102C2000CB4343F1000310401940FFF798FFC0F178
:102C30003F0000BD402000BD67090020500000207B
:102C4000D486000872B6704762B67047EFF3108002
:102C500072B6704780F31088704730BF704720BF4E
:102C60007047B0FA80F0704790FAA0F0B0FA80F0A8
:102C7000704790FAA0F07047A0F14101192902D9DC
:102C80006138192801D80120704700207047A0F151
:102C90004101192905D92039192902D930380928C3
:102CA00001D801207047002070476138192801D8E9
:102CB00001207047002070474138192801D80120B1
:102CC0007047002070473038092801D8012070472C
:102CD000002070473038072801D8012070470020B5
:102CE0007047A0F13001092905D91139052902D908
:102CF0006138052801D8012070470020704720283E
:102D000003D0092801D000207047012070472028F7
:102D10000BD00D2809D00A2807D00C2805D0092887
:102D200003D00B2801D000207047012070472038C5
:102D30005E2801D8012070470020704721385D28A7
:102D400001D80120704700207047A0F120015E29C2
:102D500016D8202814D00D2812D00A2810D00C28FC
:102D60000ED009280CD00B280AD021391A2907D3F4
:102D700020391A2904D330380A2801D3012070479A
:102D80000020704741B2002901DB1F2803D97F28AA
:102D900001D00020704701207047A0F1410119299E
:102DA00000D82030C0B27047A0F16101192900D8C5
:102DB0002038C0B2704700B50B46FFF7F5FF02465A
:102DC0001846FFF7F1FF824201D1012000BD00202B
:102DD00000BD0000FD48FE490246C0E90012002186
:102DE0008160C160016141618161C1610162016312
:102DF000C162416200F148018163C1634FF48061A7
:102E000001644164F3480260704710B500231C461A
:102E1000641C41EA0323042CFAD310F0030404D108
:102E200009E0521E00F8011B641C22B1042CF8D3E7
:102E300001E008C0121F042AFBD202E000F8011BC7
:102E4000521E002AFAD110BD0A460021DDE730B437
:102E5000814202D930BC00F0C5BD10441144401E6F
:102E6000491E431A042B28D300F0030301F0030486
:102E7000A34201D1012400E00024F4B1032B07D1C7
:102E800009E05B1E11F8014900F801495BB2521ECE
:102E90000AB1002BF5DAC01EC91E04E051F804394E
:102EA00040F80439121F042AF8D2C01CC91C04E0DF
:102EB00011F8013900F80139521E002AF8D130BC4E
:102EC000704770B5034662B16BB161B113441144F0
:102ED000012003F0030401F00305AC4205D10125F4
:102EE00004E0012070BD002070BD0025DDB1BCB143
:102EF00013F8015D11F8016DB54200D00020521E9B
:102F0000641E0128F0D1002AF1D109E053F8044DE4
:102F100051F8045DAC4200D00020121F01280AD1F4
:102F2000042AF3D207E013F8014D11F8015DAC4219
:102F300000D00020521E0128D6D1002AF3D170BD46
:102F400030B5C36BB3FBF2F402FB14340CB1121BAB
:102F500000E00022446C11448C4201D2002030BDBC
:102F60005D18611AC5631A444164104630BD10B53E
:102F7000B0FBF3F403FB140000B1181AB2FBF3F436
:102F800003FB14240CB11B1B00E0002310441A4463
:102F9000491E02FB010010BD2DE9FC5F1F46140015
:102FA0008A46834600D101AC0020884E2060FFF79E
:102FB0004DFE009053465A460121D6F84480F06BEE
:102FC000FFF7D5FF054642F2E279404506D9009861
:102FD000FFF740FEA5EB0800206012E0524659467C
:102FE0003046FFF7ADFF0600009807D0FFF732FE2E
:102FF00042F2107038803046BDE8FC9FFFF72AFE91
:103000002560A7F800900020F6E72DE9F04116466C
:103010000D460446FFF71AFE6368996B01B96B4BC6
:10302000DF6B5C6CFFF716FE012D06D9B7FBF5F0E0
:1030300005FB107000B1281A241A42F2107030807B
:103040002046BDE8F0810A4601466048DDE7B8B198
:10305000614A0260002242608260C2600261426195
:103060008261C2610262826242630263C262426240
:103070008263C2630264426442F210700880704747
:1030800042F21170FAE72DE9FF4F89B08A46DDE977
:103090001879044607B906AF002038604946204633
:1030A000FFF7D5FFB9F80010A1F51C50103859D121
:1030B0004848006890B10020DFF810810290FFF7C7
:1030C000C5FD0590BAF100000BD002460B98002612
:1030D00013184048B3465B1E056848E042F2E771AA
:1030E0003EE0D8F83C1003910423C34645461A46F7
:1030F0000C990398FFF73BFF03990490084408904C
:10310000DDE916230C99FFF732FF0090009904982F
:10311000464608440290D8F844100191884261D98B
:103120000598FFF797FDDDE901103CE0A86B5045DD
:1031300006D1D5F840C00B998C4501D12E4618E038
:10314000296C0144491E834213D3824203D98B4226
:1031500001D98A4209D80598FFF77CFD42F27F71B8
:10316000A9F800100DB0BDE8F08FAB46ED68002D5A
:10317000DCD136B9C4E90EAA0B9820640B98264618
:10318000606404231A46D8F83C000C99FFF7EFFE60
:103190000490D8F844100191884206D90598FFF7A9
:1031A00059FD01990498401A34E0F06B0890DDE96C
:1031B00016230C99FFF7DBFE0090716C0191884299
:1031C00010D90598FFF746FD08E0000078090020B7
:1031D00048454150540000204E4F4E45DDE9000166
:1031E000401A46E00C9804228000014601904046B7
:1031F000FFF7A6FE039008B100201CE0D8F8444079
:103200000598FFF727FDBAF1000F07D00198A042FB
:1032100000D9001B386042F2E27054E00298F6E7F1
:10322000DDE916123046FFF78BFE90B1039941F8A5
:10323000280008F101000C9980468842F0D3A6428C
:1032400020D1C4E902B55FEA0B0016D0CBF80C40E0
:1032500015E0F56B746C0598FFF7FCFC0C98DDE944
:103260001623A0EB08012846FFF781FEA04200D9F3
:10327000001B386042F2D87025E06E4804603DB112
:10328000AC6005E07069C4E90460746100B1046178
:103290006948C4E900060898A061009908980844A4
:1032A000401EE061039820620098A0621798606356
:1032B000169820630C98E0620C9860620598FFF7FE
:1032C000C9FC42F21070A9F800004BE770B50D463A
:1032D0000446FFF7BBFC646AFFF7BCFC42F21070C7
:1032E0002880204670BD70B515460446FFF7AEFC39
:1032F000616A49B1E26A91420BD9FFF7ABFC42F235
:1033000095702880002070BDFFF7A4FC42F2DE70AB
:10331000F7E7491E6162226A52F82140FFF79AFCE2
:1033200042F210702880204670BD70B514460E46DB
:103330000546FFF78BFCEA6A911B491E42F295761F
:103340008A4202D96A6A8A4204D9FFF783FC26803E
:10335000002070BD2A6A52F82150FFF77BFC42F230
:1033600010702080284670BD2DE9F04116460D46AC
:103370000446FFF76BFCE76A626A8446BA4204D3EC
:10338000FFF768FC42F2DD701EE04FF0000E1346BE
:10339000206A04E050F82310A94205D05B1C9F422C
:1033A000F8D8BEF1000F03D050F8221040F82310D7
:1033B000D4E9080140F82150606A401C6062604610
:1033C000FFF748FC42F2107030803AE62DE9F041F8
:1033D00015460E4604464FF0FF37FFF737FC02460E
:1033E000E16A606A884205D31046FFF733FC42F277
:1033F000DD701CE04FF0000C05E0236A53F820302C
:10340000B34205D0401C8142F7D8BCF1000F09D06F
:103410000C1A1046641EFFF71DFC42F21070288043
:1034200020460EE61046FFF715FC42F28870288011
:10343000384606E654000020504F4F4C002201E071
:10344000401C521C18B103780BB18A42F8D31046C5
:1034500070474FF0FF31F1E730B5002811D089B146
:103460000346002405E0491C03F8015B641C4BB1D2
:1034700041B10D780DB19442F5D3944201D20021AF
:10348000197030BD002030BD4FF0FF32E4E730B599
:10349000002816D0B1B1002A13D0034601E05B1C0E
:1034A00010D01C78002CFAD104E0491C03F8015B11
:1034B000641C3BB131B10D780DB19442F5D30021BC
:1034C000197030BD002030BD4FF0FF32DFE7F0B59E
:1034D00032B330B111B304460B46401C491C0025E1
:1034E00008E0E9B108784042F0BD401C491C5B1C73
:1034F000641C6D1C26781F78BE4204D11EB110B129
:1035000009B19542F1D395420AD0F4B2FAB294428D
:1035100001D0B01AF0BD1EB10028E2D00078F0BD95
:103520000020F0BD4FF0FF32D1E72DE9F0475FEA10
:10353000020A41D070B181B10446461C0F464D1CB1
:103540000078FFF72AFC81463878FFF726FC4FF019
:10355000000811E079B3087829E0007821E008F14B
:10356000010814F8010F6D1C761C7F1CFFF715FC79
:1035700081463878FFF711FC814505D1217819B1D2
:1035800016B10DB1D045EAD3D04515D04946814595
:1035900003D0A9EB0000BDE8F0870800FBD026B1FE
:1035A0003078BDE8F047FFF7F8BB25B12878FFF782
:1035B000F4FB4042EFE7FFE70020ECE74FF0FF327B
:1035C000B3E710B5002812D081B1002303E0401CFE
:1035D00003F101030BD004781CB1944201D08B425B
:1035E000F5D38B4202D2E1B2914200D0002010BD4F
:1035F0000A464FF0FF31E4E730B5154604000FD01E
:1036000071B1491EFFF71AFF20180AD000E0401ED2
:10361000A04202D00178A942F9D10178A94200D094
:10362000002030BD0A464FF0FF31E5E730B50028F5
:1036300003D00BB1044607E0002030BD8D4200D11D
:1036400022705B1E641CF8D02578002DF5D0002B6D
:10365000F4D130BD4FF0FF33E8E72DE9F0418C465F
:10366000060032D0BCF1000F2FD072B3501C01D035
:10367000511C01E04FF0FF310D4611463046FFF777
:10368000DDFE044629466046FFF7D8FE050014D04B
:10369000A5421AD8301911D01CEB05000ED0671BBB
:1036A0000024301980462A466146FFF710FF0100CA
:1036B00006D00020641C28B106E03046BDE8F08149
:1036C0000120F7E7BC42ECD909B10020F6E74046FB
:1036D000F4E74FF0FF32C0E72DE9FF5F074611988E
:1036E0000E9D1446894600286CD00026B246B9F1DA
:1036F000000F00D10126A01E232800D3012615B3F8
:103700002846FFF714FB01281CD1302D1BD0A5F152
:103710003000C1B20F98012802D0A5F1410001E0AC
:10372000A5F16100C0B20A2C02D8A14206D307E07D
:103730000A2903D3A4F10A01884201D2012000E042
:10374000002000B10126119A56BBB846012003E0C3
:10375000B8FBF4F8401CC0B2A045F9D20399012986
:1037600000D0002100EB010CCC4518D84FF0000B25
:103770004B46484500D318464DB1A9EB0000401A0E
:103780004B4610F0FF0F04D0302D04D001E0084468
:10379000C3B2002000E0012082460EB901E00126FC
:1037A0004B461099D01809B1002101700021401E2C
:1037B00004E056B13F2200F80129491C9942F8D390
:1037C0009EB3002004B0BDE8F09F27B919B1039A59
:1037D000012A16D024E0B7FBF4F204FB1272D2B235
:1037E0000A2A01D2303207E0DDF83CC0BCF1010FFB
:1037F00001D0373200E05732B7FBF4F700F8012967
:10380000DBE75AEA0B0205D0BAF1000F08D05A1EC6
:10381000914205D12D2200F801294FF0010BCCE790
:10382000002DCAD000F80159C7E7FFE71198C9E792
:103830007FB50DF1200C9CE870008DE87800002326
:10384000FFF74AFF04B070BD2DE9FF411C46DDE9DA
:103850000B650A9F002802DA4042012300E00023A2
:10386000CDE90047CDE90265FFF736FF04B025E753
:103870002DE9FF5F1E4615465FEA0109824601D128
:103880000DF10809C9F800A00E9808B903A80E9018
:1038900000210170BAF1000003D0012D01D0242DC8
:1038A00001D900208EE70446007801E014F8010FEA
:1038B000FFF72DFA0128F9D020782B2803D02D28E6
:1038C00005D0002007E04FF0000B641C04E0012E3F
:1038D00000D1641C01208346019425B1082D11D02C
:1038E000102D22D112E02078302801D00A251CE0CA
:1038F00014F8010F582803D0782801D0082514E0C7
:1039000010250CE0207830280ED00EE020783028EA
:103910000BD114F8010F582801D0782805D1607810
:10392000FFF7DFF9012800D1641C0026B04600969D
:1039300027783846FFF7ABF9012824D13846FFF73E
:10394000C2F901280CD03846FFF7AFF9012809D099
:10395000373FF9B2A94216D2B8F1000F04D00EE0F9
:10396000303FF6E7573FF4E71D4850F82500B042D6
:1039700003D306FB05168E4201D24FF001080098D2
:10398000641C0028D4D0B8F1010F01D14FF0FF36EC
:103990000198844202D0C9F8004001E0C9F800A0B3
:1039A0000E99304681F800B00CE708B5002300936B
:1039B000FFF75EFF08BD1CB501AB00930123FFF7C5
:1039C00057FF9DF804204FF0004122B1884200D2F9
:1039D000414208461CBD8842FCD36FF000401CBD2C
:1039E000D4870008002800D17047002900D1704713
:1039F000002A00D170472DE9F81F00F0030301F001
:103A00000304A34211D1C3F1040303F00303012B08
:103A10001DD3012A00D2F2E011F8014B00F8014B4E
:103A2000A3F10103A2F10102F1E700F0010301F0AB
:103A30000104A34200D094E0012B44D311F8014BC0
:103A400000F8014BA3F10103A2F10102F4E7B2F582
:103A5000B47F26D3B1E8F81FA0E8F81FB1E8F81F3B
:103A6000A0E8F81FB1E8F81FA0E8F81FB1E8F81FB8
:103A7000A0E8F81FB1E8F81FA0E8F81FB1E8F81FA8
:103A8000A0E8F81FB1E8F81FA0E8F81FB1E8F81F98
:103A9000A0E8F81FB1E8F81FA0E8F81FA2F5B4727B
:103AA000D5E7282A06D3B1E8F81FA0E8F81FA2F14D
:103AB0002802F6E7042A06D351F8043B40F8043BF9
:103AC000A2F10402F6E7202A42D331F8023B20F8A3
:103AD000023B31F8023B20F8023B31F8023B20F870
:103AE000023B31F8023B20F8023B31F8023B20F860
:103AF000023B31F8023B20F8023B31F8023B20F850
:103B0000023B31F8023B20F8023B31F8023B20F83F
:103B1000023B31F8023B20F8023B31F8023B20F82F
:103B2000023B31F8023B20F8023B31F8023B20F81F
:103B3000023B31F8023B20F8023B31F8023B20F80F
:103B4000023B31F8023B20F8023BA2F12002BAE727
:103B5000022A06D331F8023B20F8023BA2F102020E
:103B6000F6E7102A42D311F8013B00F8013B11F8A7
:103B7000013B00F8013B11F8013B00F8013B11F853
:103B8000013B00F8013B11F8013B00F8013B11F843
:103B9000013B00F8013B11F8013B00F8013B11F833
:103BA000013B00F8013B11F8013B00F8013B11F823
:103BB000013B00F8013B11F8013B00F8013B11F813
:103BC000013B00F8013B11F8013B00F8013B11F803
:103BD000013B00F8013B11F8013B00F8013B11F8F3
:103BE000013B00F8013BA2F11002BAE7012A06D31B
:103BF00011F8013B00F8013BA2F10102F6E7BDE834
:103C0000F81F704770470000F94CFFF71FF8216854
:103C1000491C2160FFF71EF804F09AFAF5E700B599
:103C2000F34A89B0002111600B2205910691CDE97C
:103C30000720F048F04AF14B006812681B680292B6
:103C4000CDE903013F20CDE900030023AFF2470295
:103C5000EBA1F04802F095FD09B000BD0020EE4B4D
:103C6000024600EB400103EB8101401C0A810A601F
:103C7000C0B24A604028F4D3704710B5044604F03F
:103C80006DFAE6480022F0490270E5480270E54806
:103C90000270E5480260E5480260E5480270E548C8
:103CA0000270E5480270E5480260E5480260E548B8
:103CB0000260086830B1E548006818B1096804C0BE
:103CC000491EFCD1E2480260E2480260E24802601C
:103CD000E2480260E2480260E2480260E2480260B4
:103CE000E248027001F082FEFFF7B8FF204600F0C4
:103CF000F0FF2088002841D1204601F030FA2088CA
:103D000000283BD1204601F053FA2088002835D105
:103D1000204601F054FE208800282FD1204602F0D2
:103D200091F92088002829D1204602F039FC20880A
:103D3000002823D1204603F085FB208800281DD1D0
:103D4000204601F0BAF82088002817D12046FFF756
:103D500066FF2088002811D1204603F071FC2088DE
:103D600000280BD1204604F063F92088002805D1F3
:103D700000F00EFCBDE81040FFF744BF10BDA8489E
:103D80000078012805D1A5490878FA2801D2401CFD
:103D900008707047A24810B5007801282BD1FEF7B3
:103DA00055FF9E490446087800B3401E10F0FF00FE
:103DB00008701BD19B480078C0B901F020FE9D49D6
:103DC0000870954900EB400051F8200097490860C1
:103DD00095490968884209D050F8901F491C016034
:103DE000A3480168491C016004F03EFC2046BDE880
:103DF0001040FEF72FBF10BD884810B5007800288E
:103E000024D188480078002820D1FEF71FFF0446FF
:103E100001F0F5FD874908707F4900EB400051F83B
:103E200020008249086080490968884209D050F81A
:103E3000901F491C01608E480168491C016004F014
:103E40000EFC2046BDE81040FEF704BF10BD7548CB
:103E500010B50078012803D1FEF7FDFD7749086011
:103E600010BD70B504466D48007810B146F662503A
:103E700019E06B480078012802D045F6896012E00D
:103E8000684D2878FA2802D345F209200BE0FEF7A6
:103E9000DDFE06462878401C2870FFF7D8FF304624
:103EA000FEF7D8FE0020208070BD5E4810B5007877
:103EB00000280ED1FEF7CFFD60490968401A60491D
:103EC0000A68824200D208605E490A68824200D2D3
:103ED000086010BD70B504465048007810B146F631
:103EE000655023E04E480078012802D045F68960ED
:103EF0001CE04C4E307870B1FEF7A8FE05463078D5
:103F0000401E10F0FF00307008D02846FEF7A2FED9
:103F100046F663500AE046F6645007E0FFF7C5FF37
:103F20002846FEF797FEFFF767FF0020208070BD50
:103F300070B53B4D0446287818B145F68A6020805C
:103F400070BD01F05CFD3B49087039490870324989
:103F500000EB400051F82000344908603249086005
:103F60000120287004F06AFB43F69920E7E700215E
:103F7000018047F25C60704738B14268C1F8C020E8
:103F800081688968096AC161704791F83400022824
:103F900003D0072803D037A002E037A000E038A004
:103FA000C1F8C000704730B58A68002592F83740E4
:103FB00002891AB1521C028102680BE001220281BF
:103FC0004D600D60016065E0936893F83730A3425F
:103FD00003D85268002AF7D158E032B113682BB1E8
:103FE000C1E900325960116030BD4FE054E000007B
:103FF0007C0000207C88000878880008748800080D
:1040000075432F4F532D4949492049646C6520540D
:1040100061736B0050200020E4210020800000200C
:1040200081000020C80000200001002004010020C1
:10403000AE000020AF000020B0000020BC00002037
:10404000C0000020C4000020A08800089C88000850
:104050006000002064000020680000206C00002048
:10406000700000207400002078000020DE00002096
:10407000D4000020200000005461736B2051000028
:104080005461736B2053656D000000004D60426801
:104090000A6051604160A7E71160C1E90052016008
:1040A000A2E710B5C2870024234601630EE04B60EF
:1040B00041F8103B641C41F8103BA4B241F80C3CA1
:1040C00021F8083C41F8043C41F8180C9442EED326
:1040D00010BD70B5044690F83700F84900EB400079
:1040E00001EB8001D4E90320002540B10B895B1E60
:1040F0000B81C26092B110612561E56070BD2AB18B
:104100000889401E088115610A60F5E70D810D6080
:104110004D6094F8370001F090FCEDE74860EBE764
:1041200038B50446022531B16B46022203F0C1FACC
:10413000BDF8000028B184F836502046FFF7C9FFCB
:1041400038BD032084F83600F7E72DE9F041DC4D57
:1041500007460C4628680026194680F8342080F867
:104160003560FFF7DDFF64B1FC6004F10806012251
:1041700039462868FFF795FF39463046FFF713FFA9
:1041800002E02868C687066320462968BDE8F0413A
:10419000F2E610B502890024012A0BD00A6862B148
:1041A0004B6873B153601A600289521E02814C60E1
:1041B0000C6010BD04604460F6E74A681460026059
:1041C000F2E754604260EFE770B50646C58F046BB6
:1041D00007E0E06821460830FFF7DBFF6D1EADB257
:1041E0002034002DF5D10020F087306370BD10B56C
:1041F0000B6BC98F08E0DC68844202D1DA61186178
:1042000010BD491E89B220330029F4D110BD90F8A9
:104210003710AA4A01EB410102EB810100230A8910
:1042200042B1521C0A810A68C0E903230A6810617E
:104230000860704701220A81C3600361086048601A
:10424000704790F837109D4A01EB410102EB810164
:1042500000230A893AB1521C0A81C3604A6802618C
:10426000D0604860704701220A81C3600361086022
:10427000F7E710B5044690F8370001F0D0FB9149FC
:1042800094F8370009788842204602D1BDE81040F2
:10429000D7E7BDE81040BAE710B5044603F0FAF8D6
:1042A00094F83610490703D42046BDE81040E0E7F3
:1042B00010BD2DE9F041064691F8360000270C4666
:1042C00015464FF00108082835D2DFE800F03434F5
:1042D000040434341A1A94F83400032803D1214614
:1042E0003046FFF784FFE765A4F86070256416B1D7
:1042F0002046FFF769FF2046FFF7CEFF84F83670AF
:1043000015E094F83400032803D121463046FFF726
:104310006EFFE765A4F86070256416B12046FFF7CC
:1043200053FF204603F0B6F8042084F8360084F8E2
:10433000358084F83470BDE8F08163A2C1F8C020F4
:10434000816811B18968096A00E05FA1C1617047A5
:1043500070B580F83710C58F046B0FE0E668308ABF
:104360000836012807D921463046FFF712FF2146BB
:104370003046FFF718FE6D1EADB22034002DEDD192
:1043800070BD002101604160018170470289521CAB
:10439000028102684A6000220A60026802B111606C
:1043A00001600289012A00D14160704710B50B6B92
:1043B000C98F08E0DC68844202D1DA61186110BD5F
:1043C000491E89B220330029F4D110BD2DE9F041F6
:1043D0000C4691F836100025022617460829AAD265
:1043E000DFE801F0323204043232191994F8341043
:1043F000032903D13A462146FFF7D8FFE565A4F823
:10440000605020462764FFF7DFFE2046FFF744FF99
:1044100084F8365014E094F83410032903D13A4656
:104420002146FFF7C3FFE565A4F8605020462764E6
:1044300003F030F82046FFF7C7FE042084F836006A
:1044400084F8356084F8345075E770B50C6B049DC2
:10445000C98F0AE0E668864204D1C4E904022383D6
:10446000E56170BD491E89B220340029F2D170BDCA
:10447000F8B50C46054691F836100026069808292E
:1044800044D2DFE801F0434304044343292994F86C
:10449000341003291AD0E265A4F86030206435B1E5
:1044A0002046FFF791FE21462846FFF746FF2046AB
:1044B000FFF7F2FE84F8366024E00000E4210020DB
:1044C00000010020AE0000202000000000902146E6
:1044D0002846FFF7BAFFE2E794F83410032916D014
:1044E000E265A4F860302064204602F0D3FF35B1C5
:1044F0002046FFF769FE21462846FFF71EFF0420ED
:1045000084F8360084F8356084F83460F8BD009093
:1045100021462846FFF799FFE6E710B501890029F3
:1045200014D0012912D00024022907D0D0E90013A9
:10453000CA681461C1E90343D96005E0D0E90012FB
:10454000C1E90342C2E90314C0E9002110BD10B55E
:10455000FEF77CFB0A490446002008700A48094916
:10456000016051F8900F401C086008490868401C21
:10457000086004F074F82046BDE81040FEF76ABBFE
:10458000AF0000201421002004010020D4000020EE
:10459000704700000023FF4AFDA14361C16111681B
:1045A00019B181614861106070478361FBE72DE9B3
:1045B000F0410446F84890460F4600781D4610B179
:1045C00042F6E16025E014B3FEF740FBF34E31788C
:1045D000491C3170FEF73EFBF148C4E90007002793
:1045E000C4E9088704F10800FFF7CBFE2046FFF777
:1045F000D1FFEC490888401C0880FEF727FB317882
:10460000491E3170FEF726FB2F80BDE8F08145F68C
:10461000C3501880F9E7E44902C0E4A102C00021B8
:104620008161FFF7AEBED0E9052100232AB151B167
:1046300091614A61836143617047D64A116001B15B
:104640004B61836170479361F5E72DE9F05F804628
:10465000D14814468946007810B143F2C92013E0CE
:10466000B8F1000F06D0080007D0012905D045F6A3
:10467000256009E045F6C35006E0C949D8F80000B6
:10468000884205D045F6C45010800020BDE8F09F58
:10469000FEF7DCFAC14F3978491C3970FEF7DAFAB7
:1046A000B8F810505FEA0900DFF8F8B2DFF80493B9
:1046B00008F10806AA460AD0012842D0FEF7C6FA39
:1046C0003978491E11F0FF0139705DD064E05FEA6E
:1046D0000A0008D0FEF7BAFA3978491E11F0FF0136
:1046E00039701FD026E04046FFF79DFFBBF8001051
:1046F0004046491EABF80010FFF78DFFFEF7A6FA03
:104700003978491E11F0FF01397007D1B9F800104E
:1047100021B1FEF79FFAFFF71AFF01E0FEF79AFAC0
:1047200000200BE0B9F8001021B1FEF793FAFFF773
:104730000EFF01E0FEF78EFA47F25F102080504630
:10474000A4E7FEF788F9814607E030684A468168A9
:104750004046FFF73BFE6D1EADB2002DF5D1404641
:10476000FFF761FFBBF800104046491EABF8001090
:10477000FFF751FFFEF76AFA3978491E3970FEF7E4
:1047800069FAFFF739FBCBE7B9F8001021B1FEF762
:1047900061FAFFF7DCFE01E0FEF75CFA45F6256002
:1047A000CCE730B4844C029D246844F8802F00226A
:1047B000238162602B4630BC0122FFF7C6BC2DE985
:1047C000FF4F05468BB07448DDE9186400781F463A
:1047D000894610B146F2AE1007E1ADB148F20101D1
:1047E000781A8F4229D019DC40F20111A7F201108A
:1047F0008F4222D00BDC012F1FD0022F1DD0042F9F
:104800001BD0082F16D118E045F6C350EDE0012863
:1048100013D0032811D007280CD10EE0B0F5807F0B
:104820000BD0F4DDA0F58070013806D0022804D04A
:10483000062802D045F62560D7E059492868884205
:1048400002D045F6C450D0E0F80501D5012000E0C3
:10485000002080464FF0000B0EB1C6F800B007F004
:104860000F010991FEF7F2F909994C4A4FF0010E38
:10487000012934D0022938D0042902D008296ED168
:1048800023E0296A01EA090ACA4524D011E021EA95
:104890000A0135E0484A1268C2F884A00EB1696A7C
:1048A0003160FEF7D7F9A4F800B050460FB0BDE86C
:1048B000F08F390426D5FEF7CDF946F2B01094E01A
:1048C000FEF7C8F946F663508FE0296A01EA09034A
:1048D0005FEA030AEDD0B8F1000FDBD0D7E7296A11
:1048E00029EA010ACA4506D0E3E7296A29EA010351
:1048F0005FEA030ADDD0B8F1000FCBD041EA0A012C
:104900002962C7E711780029DAD1924682F800E0DF
:10491000FEF7A0F90D9800903B464A46294601A8AB
:10492000FFF73FFFFEF792F99AF80010491E8AF848
:104930000010FEF78FF9FFF75FFAFEF787F91E4BBD
:104940001A6892F8351059B1012937D0022945D09B
:1049500003293BD0FEF77EF946F62E6045E014E0D1
:104960000EB1116C3160A4F800B019685F46B8F15F
:10497000000FD1F8846041D0099901293BD0022968
:1049800039D0042934D0082932D0FEF763F951E731
:10499000200000009800002080000020C8000020B7
:1049A000464C41479C0000204E4F4E453F464C41EF
:1049B000470000008C000020000100200EB1116CA7
:1049C0003160FEF747F946F2A9100EE00EB1C6F8C5
:1049D00000B0FEF73FF947F2D92006E00EB1116CA6
:1049E0003160FEF737F945F6C250208000205DE7C0
:1049F000296AB14301E0296A31432962FEF72AF9A5
:104A00002780304652E72DE9F05F8046B4480F46D4
:104A10001446007810B146F2AA1012E0B8F1000F67
:104A20000DD04FF4807A77B157450CD0B7F5004FD1
:104A300009D0B7F5014F06D045F6256001E045F6EF
:104A4000C350108021E0A749D8F80000884202D066
:104A500045F6C450F5E7FEF7F9F8B8F8101008F17C
:104A6000080569B1DFF8809299F80020521C89F896
:104A70000020FEF7EFF80026FDF7EDFF834610E07B
:104A8000FEF7E8F846F2AB1020800020FEE528682B
:104A90005A4681684046FFF70CFC761CB6B2574573
:104AA00002D128890028F2D1FEF7D0F899F8002029
:104AB000521E89F80020FEF7CDF8380401D4FFF724
:104AC0009BF9002020803046E0E570B5044684481C
:104AD000007820B146F2AE102080002070BDFEF7B5
:104AE000B5F882490968D1F88450FEF7B3F8002080
:104AF0002080284670BD70B50025C0F8841080F86D
:104B0000355080F834500446026490F83600082886
:104B10000ED2DFE800F00D0D04040D0D0A0A204648
:104B2000FFF7BAFB84F8365002E0042084F8360020
:104B30002046BDE87040FFF747BB2DE9F0479A4695
:104B400090460D460446089EFEF780F801465FEA4F
:104B5000080022D0012807D0B0F5004F1DD06FF417
:104B6000004218EB020F12D1206AA843C4E9080AD8
:104B7000208A04F108054FF0000988B15A4F3878AF
:104B8000401C38700846FEF765F82D6841E008467D
:104B9000FEF760F845F625605FE0206A2843E5E708
:104BA0000846FEF757F8A6F80090206ABDE8F0879F
:104BB00090F888106D6801F00F01012918D00229C2
:104BC0001ED004290AD008290DD0FEF73FF8397805
:104BD000491E11F0FF01397033D03AE0216AD0F854
:104BE0008020114009E0216AD0F8802011400BE0BC
:104BF000D0F88010236A0A4699438A4205D007E01C
:104C0000D0F88010226A914311B15246FFF773FF2A
:104C100015B1A8680028CBD1FEF718F83978491EDD
:104C20003970FEF717F85FEA084001D4FFF7E4F89F
:104C3000FEF70CF8246AFEF70DF8A6F8009020465F
:104C4000B4E72B49098821B1FEF704F8FFF77FFC90
:104C500001E0FDF7FFFF43F6FF2030800020A5E7CD
:104C60002DE9FF411546884606001C460DD07DB152
:104C7000012D0DD0B5F5004F0AD06FF40040C542AC
:104C800006D045F62560188019E045F6C350FAE7CE
:104C9000144F3068B84202D045F6C450F3E7FDF730
:104CA000DAFE03460E48007860B1CDE90234CDE962
:104CB000008500231A463146384600F01FF80020D0
:104CC00004B0A2E42A46414630460094FFF735FF7F
:104CD000F6E7084A00211160074A118001807047F9
:104CE00080000020464C4147C80000200001002001
:104CF0008C000020980000209C0000202DE9F05F2F
:104D00001E46DDE90AAB90460F4681460D9CFDF735
:104D10009DFF9A499A4A05460888128890422BD2EC
:104D2000401C80B2088097490A88824200D20880DD
:104D3000954A1068C0F80090C0E902780682C0F871
:104D400014A0A0F818B00C99C161406810608F4899
:104D5000012101818E4901604160002000F05FFE69
:104D60008C48007808B18C490870002020802846C3
:104D7000BDE8F05FFDF76EBF88480188491C0180DF
:104D800044F25360F2E73EB58548864A02AB0068BC
:104D900001688C1A914245D015DC834A89182DD0C0
:104DA000824A891822D0824A891832D0814AD14257
:104DB00008D1C169CDE90013038B028AC1688068FC
:104DC00001F071FF3EBD7C4961181DD07B4A8918F6
:104DD00023D07B4AD142F5D1C169CDE90013038BC1
:104DE000028AC168806801F083F83EBD0093028B9F
:104DF000C36941698068FFF7A0FE3EBD018BC269AF
:104E0000806801F008FB3EBD8068194602F035F865
:104E10003EBD018BC269806817E08068194602F0C8
:104E2000A2FA3EBDC2690021664802F089F96649CE
:104E30000868401E0860F4D1644800680860FDF707
:104E40000AFE024602AB0021614802F079F93EBD3C
:104E5000604F4A4C0025DFF84881FDF7F7FE064613
:104E60002088E8B13046FDF7F5FEFDF7F4FD064673
:104E7000FFF789FFFDF7EFFD3968801B814200D203
:104E80003860FDF7E3FED8F800205268C8F800202B
:104E90002188491E2180FDF7DDFE002DDDD0D9E7F8
:104EA0003A49002008810860486000F0C6FD30469D
:104EB000FDF7D0FEFEF7A0FFCCE7F0B53749464D31
:104EC00089B000240C80296831B12D4E3188022927
:104ED00005D244F2546135E044F2526132E03D497A
:104EE00000233E4F0C60296801F1200210E041F8D8
:104EF000087B5B1C41F8084B9BB241F8044C21F83D
:104F0000104B41F80C4C21F8084C41F81C2C203275
:104F1000B6F800C06345EAD32A6841F81C2C1A4948
:104F20000A601F490A6015492D4A0C8015490C80FA
:104F3000116851B12B492C4D0B682D68AB4207D23B
:104F400044F25661018009B0F0BD44F25561F9E7C1
:104F5000032305940694CDE90730086823491268B5
:104F600000230968CDE903040094CDE90121AFF2E3
:104F70001F121FA1064801F004FCE4E78C0000208A
:104F80006A8800088E00002084000020E4210020B0
:104F900014210020AE000020B0000020900000206E
:104FA000880000205449434BADBAB2BE0DF90BFA4C
:104FB000F2F8F7FF0006F6FF00F7FDF700FFEFFF3E
:104FC00003FE0FFEE4240020FC000020F800002077
:104FD000A825002094000020848800084E4F4E45EC
:104FE0008C88000894880008B08800089088000821
:104FF00075432F4F532D494949204953522051752C
:10500000657565205461736B00000000574B0022EA
:105010008261196819B1C161886118607047C26105
:10502000FBE72DE9F05F04465148DDE90A75007899
:10503000984616468B4610B145F2B96014E045F229
:10504000BB615EB1B8F1020F01D2481C0CE045F221
:10505000C160042F08D316F0030F02D02980BDE8E9
:10506000F09F17F0030F01D02880F8E7A8F10101A5
:105070008BB23246002104E0D0191060491C024670
:1050800089B29942F8D34FF0000AC2F800A0FDF7A8
:10509000DDFDDFF8E09099F80010491C89F8001058
:1050A000FDF7D8FD344884E84108E660A4F8148090
:1050B000A4F8128027822046FFF7A8FF2F48018816
:1050C000491C0180FDF7C2FD99F80010491E89F8BE
:1050D0000010FDF7BFFDA5F800A0C0E770B5040003
:1050E0000D460ED0FDF7B2FDA18A71B1E668491EEA
:1050F0003268E260A182FDF7ADFD002028803046D5
:1051000070BD45F2BF60088004E0FDF7A3FD45F2E5
:10511000C2602880002070BD70B50E4604001546A0
:105120000BD06EB1FDF792FDA18A628A91420BD33A
:10513000FDF790FD45F2BA600FE045F2BF6001E077
:1051400045F2BE60108070BDE1683160E660A18A02
:10515000491CA182FDF77EFD0020288070BD034A16
:1051600000211160054A118001807047A0000020D5
:1051700080000020C80000204D454D20A4000020E4
:1051800010B5491E8CB2002100F110020B4608E058
:10519000E0E80223491C20F8083B89B240F8043CAF
:1051A0001032A142F4D3036043600381C36010BD99
:1051B00070B5524D0446286880B1514E308880B198
:1051C00081B22868FFF7DCFF4E482968016031880A
:1051D00081800021C1800181218070BD45F21E7057
:1051E00001E045F21D70208070BD10B5428992B17A
:1051F000444903680C681C6043680B60CB88448991
:105200001B1BCB808B88448923448B8000214181E8
:10521000818101604160104610BD01810021418102
:105220008181016041607047F0B544890025CCB1AF
:105230004468278966680F800AB1E16811602168B7
:105240004160B9B14189491E41812E480168216000
:1052500004608188491C8180C188491EC1801D80ED
:105260003046F0BD0D8002B1156046F292501880B4
:105270000020F0BD05604581E7E7F0B54489DDE930
:1052800005E60589AC4202D346F293501EE01D4D5F
:10529000AF88CFB12C687F1ED4F800C0C5F800C01D
:1052A000AF80EF887F1CBFB2EF80B5F808C0BC4567
:1052B00000D22F814789002557B1DB060CD4036843
:1052C0001C60256004600AE045F21D703080F0BD6E
:1052D00004600123446004E0436823604460438920
:1052E0005B1C438187899BB29F4200D283816160AE
:1052F0002281C4F80CE03580F0BD0000AC880008C5
:105300006C880008D82100200023FD4AFBA14361DE
:10531000C161116819B18161486110607047836192
:10532000FBE72DE9F0410446F6480F4615460078A4
:1053300010B142F6E1602AE03CB3FDF787FCF24E83
:105340003178491C3170FDF785FCF048C4E900074D
:105350000027276284F825704020A76284F8240083
:1053600004F10800FFF70DF82046FFF7CDFFE849EC
:105370000888401C0880FDF769FC3178491E3170AF
:10538000FDF768FC2F80BDE8F08145F6C350108022
:10539000F9E7E04902C0E0A102C000218161417744
:1053A000016240210177FEF7ECBFD0E9052100231F
:1053B0002AB151B191614A61836143617047D04A1A
:1053C000116001B14B61836170479361F5E72DE98D
:1053D000F05F0746CB480E461446007810B143F202
:1053E000C92008E02FB146B1012E06D045F6256050
:1053F00001E045F6C3501080A4E0C44938688842F3
:1054000002D045F6C450F6E7FDF720FCDFF8F8922D
:1054100099F80020521C89F80020FDF71BFC3D8AFA
:10542000DFF8FCA207F10808AB4666B1012E48D0B0
:10543000FDF70CFC99F80010491E11F0FF0189F8E6
:10544000001079D0A9E0BBF1000F0AD0FDF7FEFBF8
:1054500099F80010491E11F0FF0189F8001020D0C2
:1054600027E03846FFF7A1FFA9480188491E0180BF
:105470003846FFF78EFFFDF7E9FB99F80010491E4B
:1054800011F0FF0189F8001007D1BAF8001021B11E
:10549000FDF7E0FBFFF75BF801E0FDF7DBFB002029
:1054A0000BE0BAF8001021B1FDF7D4FBFFF74FF87D
:1054B00001E0FDF7CFFB47F25F1020805846BDE8C2
:1054C000F09F3E6A16B396F8370097F8241088428A
:1054D0001CD096F8360008281CD2DFE800F0041132
:1054E0001414111114143046FEF7F3FD97F824003C
:1054F00086F8370000F093FA3046FEF7A2FE05E08A
:1055000086F8371002E03046FEF722FFFDF7A3FAD7
:10551000064622E0FDF79AFB99F80010491E11F0AB
:10552000FF0189F8001008D1BAF8001029B1FDF781
:1055300091FBFFF70CF802E027E0FDF78BFB46F646
:105540002D6020800020BAE7D8F80000324681683C
:105550003846FEF73BFF6D1EADB2002DF4D1384644
:10556000FFF723FF6A480188491E01803846FFF78C
:1055700010FFFDF76BFB99F80020521E89F8002000
:10558000FDF768FBFEF738FC89E7BAF8001021B197
:10559000FDF760FBFEF7DBFF01E0FDF75BFB45F687
:1055A00025608AE72DE9F04F0646564889B01C462B
:1055B0000078129D17468B4610B146F2AE10C9E036
:1055C00036B147B1B7F5004F05D045F62560C1E0CB
:1055D00045F6C350BEE04D493068884202D045F6DA
:1055E000C450B7E04FF000080CB1C4F80080FDF7DC
:1055F0002DFB96F825104B4B012281B19A46D6F827
:1056000020C01B689C451CD1491C86F825100CB194
:10561000B16A2160FDF71EFB45F282709AE01968BD
:10562000316291F8371086F8241086F825200CB1E5
:10563000B16A2160FDF70EFBA5F8008009B0BDE856
:10564000F08F390404D5FDF705FB46F2B01081E078
:105650002D490B7823B1FDF7FDFA46F6635079E04A
:1056600089460A70FDF7F6FA376ADAF8000097F80B
:10567000372090F837108A421ED997F8360008284C
:1056800052D2DFE800F0041316161313161638462C
:10569000FEF71FFDDAF8000090F8370087F83700B2
:1056A00000F0BDF93846FEF7B2FD05E087F8371087
:1056B00002E03846FEF74CFE5B460422314668465F
:1056C000FEF743FDFDF7C2FA99F80020521E89F853
:1056D0000020FDF7BFFAFEF78FFBFDF7B7FADAF807
:1056E000002092F8351041B101293BD0022948D061
:1056F00003293DD046F62E613FE02DE0200000005A
:10570000A800002080000020C80000204D555458FB
:10571000AC0000204E4F4E453F4D555445580000BB
:105720008C00002000010020FDF790FA99F800108D
:10573000491E11F0FF0189F8001007D1A34909881B
:1057400021B1FDF787FAFEF702FF01E0FDF782FACB
:1057500046F62D60288071E70CB1116C2160A5F828
:1057600000800BE00CB1116C216046F2A91104E03D
:105770000CB1C4F8008047F2D9212980FDF76AFAFC
:105780005CE70CB1116C216045F6C251F5E72DE9DB
:10579000F05F80468E480F461446007810B146F2FE
:1057A000AA1012E0B8F1000F0DD04FF4807A77B153
:1057B00057450CD0B7F5004F09D0B7F5014F06D0CB
:1057C00045F6256001E045F6C350108021E081498F
:1057D000D8F80000884202D045F6C450F5E7FDF73E
:1057E00035FAB8F8101008F1080569B1DFF8E8914A
:1057F00099F80020521C89F80020FDF72BFA0026AA
:10580000FDF729F9834610E0FDF724FA46F2AB10C4
:105810002080002053E628685A4681684046FEF7FB
:1058200048FD761CB6B2574502D128890028F2D12E
:10583000FDF70CFA99F80020521E89F80020FDF7B8
:1058400009FA380401D4FEF7D7FA00202080304648
:1058500035E62DE9F84F04465D4815468A4600783E
:1058600010B146F20E2011E03CB1080008D0B1F5AD
:10587000004F05D045F6256008E045F6C35005E029
:1058800054492068884204D045F6C4501080BDE8D1
:10589000F88FFDF7DBF9DFF84491226AD9F80010A0
:1058A0008A4204D0FDF7D6F945F281706CE0DFF84A
:1058B000288198F80020521C88F80020FDF7CAF9CA
:1058C000FDF7C9F80646A06294F82500DFF8FCB0A1
:1058D000401E10F0FF0084F8250016D0FDF7B6F941
:1058E00098F80010491E11F0FF0188F8001007D148
:1058F000BBF8001021B1FDF7ADF9FEF728FE01E07D
:10590000FDF7A8F945F283703EE0208A04F108070C
:10591000E0B3D9F8000094F8243090F837209A4288
:1059200013D0FEF7D6FBD9F8001094F8240081F8C4
:10593000370000F074F8D9F80000FEF782FCD9F8BF
:105940000000274990F837000870386800231A468D
:105950008168216291F8370084F82400012084F8DE
:10596000250020460096FEF783FDFDF76FF998F8B5
:105970000020521E88F80020FDF76CF95FEA0A400B
:1059800001D4FEF739FA0020288080E7FFE70026DF
:105990002662FDF75BF998F80010491E11F0FF012F
:1059A00088F8001007D1BBF8001021B1FDF752F9BB
:1059B000FEF7CDFD01E0FDF74DF92E8067E7094ABE
:1059C00000211160084A1180018070478C0000207E
:1059D000800000204D555458C800002000010020D0
:1059E000AE000020A8000020AC00002000201A4AD1
:1059F000014642F82010401C0228FAD3704710B527
:105A00000024154802E02034E4B2001D016800299A
:105A1000F9D00846FDF725F92044C0B210BD00F0CA
:105A20001F0241090120C2F11F0290400A4A52F8A8
:105A30002130034342F82130704700F01F02410932
:105A40000120C2F11F029040034A52F821308343E3
:105A500042F8213070470000580000200023F84A27
:105A6000F6A14361C161116819B18161486110609B
:105A700070478361FBE72DE9F0410446F148174682
:105A8000884600781D4610B142F6E1602CE034B340
:105A900047B3FDF7DBF8EC4E3178491C3170FDF768
:105AA000D9F8EA48C4E90008394604F12000FFF7B4
:105AB000B4FB04F10800FEF764FC2046FFF7CEFFBC
:105AC000E3490888401C0880FDF7C0F83178491E7A
:105AD0003170FDF7BFF800202880BDE8F08145F661
